{
  "_format": "hh-sol-artifact-1",
  "contractName": "HeroStaking",
  "sourceName": "contracts/HeroStaking.sol",
  "abi": [
    {
      "inputs": [
        {
          "internalType": "address",
          "name": "_heroNftContractAddress",
          "type": "address"
        },
        {
          "internalType": "address",
          "name": "_initialOracleAddress",
          "type": "address"
        }
      ],
      "stateMutability": "nonpayable",
      "type": "constructor"
    },
    {
      "inputs": [],
      "name": "ECDSAInvalidSignature",
      "type": "error"
    },
    {
      "inputs": [
        {
          "internalType": "uint256",
          "name": "length",
          "type": "uint256"
        }
      ],
      "name": "ECDSAInvalidSignatureLength",
      "type": "error"
    },
    {
      "inputs": [
        {
          "internalType": "bytes32",
          "name": "s",
          "type": "bytes32"
        }
      ],
      "name": "ECDSAInvalidSignatureS",
      "type": "error"
    },
    {
      "inputs": [
        {
          "internalType": "address",
          "name": "owner",
          "type": "address"
        }
      ],
      "name": "OwnableInvalidOwner",
      "type": "error"
    },
    {
      "inputs": [
        {
          "internalType": "address",
          "name": "account",
          "type": "address"
        }
      ],
      "name": "OwnableUnauthorizedAccount",
      "type": "error"
    },
    {
      "anonymous": false,
      "inputs": [
        {
          "indexed": true,
          "internalType": "address",
          "name": "owner",
          "type": "address"
        },
        {
          "indexed": true,
          "internalType": "address",
          "name": "nftContract",
          "type": "address"
        },
        {
          "indexed": true,
          "internalType": "uint256",
          "name": "tokenId",
          "type": "uint256"
        }
      ],
      "name": "HeroDeposited",
      "type": "event"
    },
    {
      "anonymous": false,
      "inputs": [
        {
          "indexed": true,
          "internalType": "address",
          "name": "owner",
          "type": "address"
        },
        {
          "indexed": true,
          "internalType": "uint256",
          "name": "tokenId",
          "type": "uint256"
        },
        {
          "indexed": false,
          "internalType": "uint256",
          "name": "level",
          "type": "uint256"
        },
        {
          "indexed": false,
          "internalType": "uint256",
          "name": "xp",
          "type": "uint256"
        }
      ],
      "name": "HeroWithdrawn",
      "type": "event"
    },
    {
      "anonymous": false,
      "inputs": [
        {
          "indexed": true,
          "internalType": "address",
          "name": "previousOwner",
          "type": "address"
        },
        {
          "indexed": true,
          "internalType": "address",
          "name": "newOwner",
          "type": "address"
        }
      ],
      "name": "OwnershipTransferred",
      "type": "event"
    },
    {
      "inputs": [
        {
          "internalType": "uint256",
          "name": "_tokenId",
          "type": "uint256"
        }
      ],
      "name": "depositHero",
      "outputs": [],
      "stateMutability": "nonpayable",
      "type": "function"
    },
    {
      "inputs": [
        {
          "internalType": "uint256",
          "name": "_tokenId",
          "type": "uint256"
        }
      ],
      "name": "getStaker",
      "outputs": [
        {
          "internalType": "address",
          "name": "",
          "type": "address"
        }
      ],
      "stateMutability": "view",
      "type": "function"
    },
    {
      "inputs": [],
      "name": "heroNftContractAddress",
      "outputs": [
        {
          "internalType": "address",
          "name": "",
          "type": "address"
        }
      ],
      "stateMutability": "view",
      "type": "function"
    },
    {
      "inputs": [
        {
          "internalType": "address",
          "name": "",
          "type": "address"
        }
      ],
      "name": "nonces",
      "outputs": [
        {
          "internalType": "uint256",
          "name": "",
          "type": "uint256"
        }
      ],
      "stateMutability": "view",
      "type": "function"
    },
    {
      "inputs": [
        {
          "internalType": "address",
          "name": "",
          "type": "address"
        },
        {
          "internalType": "address",
          "name": "",
          "type": "address"
        },
        {
          "internalType": "uint256",
          "name": "",
          "type": "uint256"
        },
        {
          "internalType": "bytes",
          "name": "",
          "type": "bytes"
        }
      ],
      "name": "onERC721Received",
      "outputs": [
        {
          "internalType": "bytes4",
          "name": "",
          "type": "bytes4"
        }
      ],
      "stateMutability": "nonpayable",
      "type": "function"
    },
    {
      "inputs": [],
      "name": "oracleAddress",
      "outputs": [
        {
          "internalType": "address",
          "name": "",
          "type": "address"
        }
      ],
      "stateMutability": "view",
      "type": "function"
    },
    {
      "inputs": [],
      "name": "owner",
      "outputs": [
        {
          "internalType": "address",
          "name": "",
          "type": "address"
        }
      ],
      "stateMutability": "view",
      "type": "function"
    },
    {
      "inputs": [],
      "name": "renounceOwnership",
      "outputs": [],
      "stateMutability": "nonpayable",
      "type": "function"
    },
    {
      "inputs": [
        {
          "internalType": "address",
          "name": "_newAddress",
          "type": "address"
        }
      ],
      "name": "setHeroNftContractAddress",
      "outputs": [],
      "stateMutability": "nonpayable",
      "type": "function"
    },
    {
      "inputs": [
        {
          "internalType": "address",
          "name": "_newOracleAddress",
          "type": "address"
        }
      ],
      "name": "setOracleAddress",
      "outputs": [],
      "stateMutability": "nonpayable",
      "type": "function"
    },
    {
      "inputs": [
        {
          "internalType": "address",
          "name": "",
          "type": "address"
        },
        {
          "internalType": "uint256",
          "name": "",
          "type": "uint256"
        }
      ],
      "name": "stakedBy",
      "outputs": [
        {
          "internalType": "address",
          "name": "",
          "type": "address"
        }
      ],
      "stateMutability": "view",
      "type": "function"
    },
    {
      "inputs": [
        {
          "internalType": "address",
          "name": "newOwner",
          "type": "address"
        }
      ],
      "name": "transferOwnership",
      "outputs": [],
      "stateMutability": "nonpayable",
      "type": "function"
    },
    {
      "inputs": [
        {
          "internalType": "uint256",
          "name": "tokenId",
          "type": "uint256"
        },
        {
          "internalType": "uint256",
          "name": "level",
          "type": "uint256"
        },
        {
          "internalType": "uint256",
          "name": "xp",
          "type": "uint256"
        },
        {
          "internalType": "bytes",
          "name": "signature",
          "type": "bytes"
        }
      ],
      "name": "withdrawHero",
      "outputs": [],
      "stateMutability": "nonpayable",
      "type": "function"
    }
  ],
  "bytecode": "0x60806040523480156200001157600080fd5b50604051620021513803806200215183398181016040528101906200003791906200035b565b33600073ffffffffffffffffffffffffffffffffffffffff168173ffffffffffffffffffffffffffffffffffffffff1603620000ad5760006040517f1e4fbdf7000000000000000000000000000000000000000000000000000000008152600401620000a49190620003b3565b60405180910390fd5b620000be816200022d60201b60201c565b50600073ffffffffffffffffffffffffffffffffffffffff168273ffffffffffffffffffffffffffffffffffffffff160362000131576040517f08c379a0000000000000000000000000000000000000000000000000000000008152600401620001289062000457565b60405180910390fd5b600073ffffffffffffffffffffffffffffffffffffffff168173ffffffffffffffffffffffffffffffffffffffff1603620001a3576040517f08c379a00000000000000000000000000000000000000000000000000000000081526004016200019a90620004ef565b60405180910390fd5b81600260006101000a81548173ffffffffffffffffffffffffffffffffffffffff021916908373ffffffffffffffffffffffffffffffffffffffff16021790555080600360006101000a81548173ffffffffffffffffffffffffffffffffffffffff021916908373ffffffffffffffffffffffffffffffffffffffff160217905550505062000511565b60008060009054906101000a900473ffffffffffffffffffffffffffffffffffffffff169050816000806101000a81548173ffffffffffffffffffffffffffffffffffffffff021916908373ffffffffffffffffffffffffffffffffffffffff1602179055508173ffffffffffffffffffffffffffffffffffffffff168173ffffffffffffffffffffffffffffffffffffffff167f8be0079c531659141344cd1fd0a4f28419497f9722a3daafe3b4186f6b6457e060405160405180910390a35050565b600080fd5b600073ffffffffffffffffffffffffffffffffffffffff82169050919050565b60006200032382620002f6565b9050919050565b620003358162000316565b81146200034157600080fd5b50565b60008151905062000355816200032a565b92915050565b60008060408385031215620003755762000374620002f1565b5b6000620003858582860162000344565b9250506020620003988582860162000344565b9150509250929050565b620003ad8162000316565b82525050565b6000602082019050620003ca6000830184620003a2565b92915050565b600082825260208201905092915050565b7f4865726f5374616b696e673a204e465420636f6e74726163742061646472657360008201527f732063616e6e6f74206265207a65726f00000000000000000000000000000000602082015250565b60006200043f603083620003d0565b91506200044c82620003e1565b604082019050919050565b60006020820190508181036000830152620004728162000430565b9050919050565b7f4865726f5374616b696e673a204f7261636c6520616464726573732063616e6e60008201527f6f74206265207a65726f00000000000000000000000000000000000000000000602082015250565b6000620004d7602a83620003d0565b9150620004e48262000479565b604082019050919050565b600060208201905081810360008301526200050a81620004c8565b9050919050565b611c3080620005216000396000f3fe608060405234801561001057600080fd5b50600436106100cf5760003560e01c806384dd37171161008c578063a89ae4ba11610066578063a89ae4ba146101ea578063ba8ebb5e14610208578063e3c998fe14610238578063f2fde38b14610268576100cf565b806384dd3717146101925780638da5cb5b146101b0578063a49bb37b146101ce576100cf565b8063050e2f4c146100d4578063150b7a02146100f05780634c69c00f14610120578063715018a61461013c57806375873d3b146101465780637ecebe0014610162575b600080fd5b6100ee60048036038101906100e9919061120f565b610284565b005b61010a600480360381019061010591906113b8565b61033f565b6040516101179190611476565b60405180910390f35b61013a6004803603810190610135919061120f565b610353565b005b61014461040e565b005b610160600480360381019061015b9190611491565b610422565b005b61017c6004803603810190610177919061120f565b6108aa565b6040516101899190611523565b60405180910390f35b61019a6108c2565b6040516101a7919061154d565b60405180910390f35b6101b86108e8565b6040516101c5919061154d565b60405180910390f35b6101e860048036038101906101e39190611568565b610911565b005b6101f2610be0565b6040516101ff919061154d565b60405180910390f35b610222600480360381019061021d9190611595565b610c06565b60405161022f919061154d565b60405180910390f35b610252600480360381019061024d9190611568565b610c48565b60405161025f919061154d565b60405180910390f35b610282600480360381019061027d919061120f565b610ce4565b005b61028c610d6a565b600073ffffffffffffffffffffffffffffffffffffffff168173ffffffffffffffffffffffffffffffffffffffff16036102fb576040517f08c379a00000000000000000000000000000000000000000000000000000000081526004016102f290611658565b60405180910390fd5b80600260006101000a81548173ffffffffffffffffffffffffffffffffffffffff021916908373ffffffffffffffffffffffffffffffffffffffff16021790555050565b600063150b7a0260e01b9050949350505050565b61035b610d6a565b600073ffffffffffffffffffffffffffffffffffffffff168173ffffffffffffffffffffffffffffffffffffffff16036103ca576040517f08c379a00000000000000000000000000000000000000000000000000000000081526004016103c1906116ea565b60405180910390fd5b80600360006101000a81548173ffffffffffffffffffffffffffffffffffffffff021916908373ffffffffffffffffffffffffffffffffffffffff16021790555050565b610416610d6a565b6104206000610df1565b565b600060016000600260009054906101000a900473ffffffffffffffffffffffffffffffffffffffff1673ffffffffffffffffffffffffffffffffffffffff1673ffffffffffffffffffffffffffffffffffffffff168152602001908152602001600020600086815260200190815260200160002060009054906101000a900473ffffffffffffffffffffffffffffffffffffffff1690503373ffffffffffffffffffffffffffffffffffffffff168173ffffffffffffffffffffffffffffffffffffffff1614610527576040517f08c379a000000000000000000000000000000000000000000000000000000000815260040161051e9061177c565b60405180910390fd5b600073ffffffffffffffffffffffffffffffffffffffff168173ffffffffffffffffffffffffffffffffffffffff1603610596576040517f08c379a000000000000000000000000000000000000000000000000000000000815260040161058d9061180e565b60405180910390fd5b6000600460008373ffffffffffffffffffffffffffffffffffffffff1673ffffffffffffffffffffffffffffffffffffffff1681526020019081526020016000205490506000868686846040516020016105f3949392919061184f565b60405160208183030381529060405280519060200120905060008160405160200161061e919061191f565b60405160208183030381529060405280519060200120905060006106428287610eb5565b9050600360009054906101000a900473ffffffffffffffffffffffffffffffffffffffff1673ffffffffffffffffffffffffffffffffffffffff168173ffffffffffffffffffffffffffffffffffffffff16146106d4576040517f08c379a00000000000000000000000000000000000000000000000000000000081526004016106cb906119b7565b60405180910390fd5b600460008673ffffffffffffffffffffffffffffffffffffffff1673ffffffffffffffffffffffffffffffffffffffff168152602001908152602001600020600081548092919061072490611a06565b919050555060016000600260009054906101000a900473ffffffffffffffffffffffffffffffffffffffff1673ffffffffffffffffffffffffffffffffffffffff1673ffffffffffffffffffffffffffffffffffffffff16815260200190815260200160002060008a815260200190815260200160002060006101000a81549073ffffffffffffffffffffffffffffffffffffffff0219169055600260009054906101000a900473ffffffffffffffffffffffffffffffffffffffff1673ffffffffffffffffffffffffffffffffffffffff166342842e0e30878c6040518463ffffffff1660e01b815260040161081d93929190611a4e565b600060405180830381600087803b15801561083757600080fd5b505af115801561084b573d6000803e3d6000fd5b50505050888573ffffffffffffffffffffffffffffffffffffffff167e71d4b988b2cea9ffaaf222794ac247117b05e91cd07a453cb1c128c52a92798a8a604051610897929190611a85565b60405180910390a3505050505050505050565b60046020528060005260406000206000915090505481565b600260009054906101000a900473ffffffffffffffffffffffffffffffffffffffff1681565b60008060009054906101000a900473ffffffffffffffffffffffffffffffffffffffff16905090565b60003390506000600260009054906101000a900473ffffffffffffffffffffffffffffffffffffffff169050600073ffffffffffffffffffffffffffffffffffffffff1660016000600260009054906101000a900473ffffffffffffffffffffffffffffffffffffffff1673ffffffffffffffffffffffffffffffffffffffff1673ffffffffffffffffffffffffffffffffffffffff168152602001908152602001600020600085815260200190815260200160002060009054906101000a900473ffffffffffffffffffffffffffffffffffffffff1673ffffffffffffffffffffffffffffffffffffffff1614610a3e576040517f08c379a0000000000000000000000000000000000000000000000000000000008152600401610a3590611b20565b60405180910390fd5b8073ffffffffffffffffffffffffffffffffffffffff166342842e0e8330866040518463ffffffff1660e01b8152600401610a7b93929190611a4e565b600060405180830381600087803b158015610a9557600080fd5b505af1158015610aa9573d6000803e3d6000fd5b505050508160016000600260009054906101000a900473ffffffffffffffffffffffffffffffffffffffff1673ffffffffffffffffffffffffffffffffffffffff1673ffffffffffffffffffffffffffffffffffffffff168152602001908152602001600020600085815260200190815260200160002060006101000a81548173ffffffffffffffffffffffffffffffffffffffff021916908373ffffffffffffffffffffffffffffffffffffffff16021790555082600260009054906101000a900473ffffffffffffffffffffffffffffffffffffffff1673ffffffffffffffffffffffffffffffffffffffff168373ffffffffffffffffffffffffffffffffffffffff167f8139dca8eb464ea1b818bfb19dc7cad2857a750c4daa2951e02835c245cf729260405160405180910390a4505050565b600360009054906101000a900473ffffffffffffffffffffffffffffffffffffffff1681565b60016020528160005260406000206020528060005260406000206000915091509054906101000a900473ffffffffffffffffffffffffffffffffffffffff1681565b600060016000600260009054906101000a900473ffffffffffffffffffffffffffffffffffffffff1673ffffffffffffffffffffffffffffffffffffffff1673ffffffffffffffffffffffffffffffffffffffff168152602001908152602001600020600083815260200190815260200160002060009054906101000a900473ffffffffffffffffffffffffffffffffffffffff169050919050565b610cec610d6a565b600073ffffffffffffffffffffffffffffffffffffffff168173ffffffffffffffffffffffffffffffffffffffff1603610d5e5760006040517f1e4fbdf7000000000000000000000000000000000000000000000000000000008152600401610d55919061154d565b60405180910390fd5b610d6781610df1565b50565b610d72610ee1565b73ffffffffffffffffffffffffffffffffffffffff16610d906108e8565b73ffffffffffffffffffffffffffffffffffffffff1614610def57610db3610ee1565b6040517f118cdaa7000000000000000000000000000000000000000000000000000000008152600401610de6919061154d565b60405180910390fd5b565b60008060009054906101000a900473ffffffffffffffffffffffffffffffffffffffff169050816000806101000a81548173ffffffffffffffffffffffffffffffffffffffff021916908373ffffffffffffffffffffffffffffffffffffffff1602179055508173ffffffffffffffffffffffffffffffffffffffff168173ffffffffffffffffffffffffffffffffffffffff167f8be0079c531659141344cd1fd0a4f28419497f9722a3daafe3b4186f6b6457e060405160405180910390a35050565b600080600080610ec58686610ee9565b925092509250610ed58282610f45565b82935050505092915050565b600033905090565b60008060006041845103610f2e5760008060006020870151925060408701519150606087015160001a9050610f20888285856110a9565b955095509550505050610f3e565b60006002855160001b9250925092505b9250925092565b60006003811115610f5957610f58611b40565b5b826003811115610f6c57610f6b611b40565b5b03156110a55760016003811115610f8657610f85611b40565b5b826003811115610f9957610f98611b40565b5b03610fd0576040517ff645eedf00000000000000000000000000000000000000000000000000000000815260040160405180910390fd5b60026003811115610fe457610fe3611b40565b5b826003811115610ff757610ff6611b40565b5b0361103c578060001c6040517ffce698f70000000000000000000000000000000000000000000000000000000081526004016110339190611523565b60405180910390fd5b60038081111561104f5761104e611b40565b5b82600381111561106257611061611b40565b5b036110a457806040517fd78bce0c00000000000000000000000000000000000000000000000000000000815260040161109b9190611b7e565b60405180910390fd5b5b5050565b60008060007f7fffffffffffffffffffffffffffffff5d576e7357a4501ddfe92f46681b20a08460001c11156110e9576000600385925092509250611193565b60006001888888886040516000815260200160405260405161110e9493929190611bb5565b6020604051602081039080840390855afa158015611130573d6000803e3d6000fd5b505050602060405103519050600073ffffffffffffffffffffffffffffffffffffffff168173ffffffffffffffffffffffffffffffffffffffff160361118457600060016000801b93509350935050611193565b8060008060001b935093509350505b9450945094915050565b6000604051905090565b600080fd5b600080fd5b600073ffffffffffffffffffffffffffffffffffffffff82169050919050565b60006111dc826111b1565b9050919050565b6111ec816111d1565b81146111f757600080fd5b50565b600081359050611209816111e3565b92915050565b600060208284031215611225576112246111a7565b5b6000611233848285016111fa565b91505092915050565b6000819050919050565b61124f8161123c565b811461125a57600080fd5b50565b60008135905061126c81611246565b92915050565b600080fd5b600080fd5b6000601f19601f8301169050919050565b7f4e487b7100000000000000000000000000000000000000000000000000000000600052604160045260246000fd5b6112c58261127c565b810181811067ffffffffffffffff821117156112e4576112e361128d565b5b80604052505050565b60006112f761119d565b905061130382826112bc565b919050565b600067ffffffffffffffff8211156113235761132261128d565b5b61132c8261127c565b9050602081019050919050565b82818337600083830152505050565b600061135b61135684611308565b6112ed565b90508281526020810184848401111561137757611376611277565b5b611382848285611339565b509392505050565b600082601f83011261139f5761139e611272565b5b81356113af848260208601611348565b91505092915050565b600080600080608085870312156113d2576113d16111a7565b5b60006113e0878288016111fa565b94505060206113f1878288016111fa565b93505060406114028782880161125d565b925050606085013567ffffffffffffffff811115611423576114226111ac565b5b61142f8782880161138a565b91505092959194509250565b60007fffffffff0000000000000000000000000000000000000000000000000000000082169050919050565b6114708161143b565b82525050565b600060208201905061148b6000830184611467565b92915050565b600080600080608085870312156114ab576114aa6111a7565b5b60006114b98782880161125d565b94505060206114ca8782880161125d565b93505060406114db8782880161125d565b925050606085013567ffffffffffffffff8111156114fc576114fb6111ac565b5b6115088782880161138a565b91505092959194509250565b61151d8161123c565b82525050565b60006020820190506115386000830184611514565b92915050565b611547816111d1565b82525050565b6000602082019050611562600083018461153e565b92915050565b60006020828403121561157e5761157d6111a7565b5b600061158c8482850161125d565b91505092915050565b600080604083850312156115ac576115ab6111a7565b5b60006115ba858286016111fa565b92505060206115cb8582860161125d565b9150509250929050565b600082825260208201905092915050565b7f4865726f5374616b696e673a204e657720616464726573732063616e6e6f742060008201527f6265207a65726f00000000000000000000000000000000000000000000000000602082015250565b60006116426027836115d5565b915061164d826115e6565b604082019050919050565b6000602082019050818103600083015261167181611635565b9050919050565b7f4865726f5374616b696e673a204e6577206f7261636c6520616464726573732060008201527f63616e6e6f74206265207a65726f000000000000000000000000000000000000602082015250565b60006116d4602e836115d5565b91506116df82611678565b604082019050919050565b60006020820190508181036000830152611703816116c7565b9050919050565b7f4865726f5374616b696e673a2043616c6c6572206973206e6f7420746865207360008201527f74616b6572000000000000000000000000000000000000000000000000000000602082015250565b60006117666025836115d5565b91506117718261170a565b604082019050919050565b6000602082019050818103600083015261179581611759565b9050919050565b7f4865726f5374616b696e673a20546f6b656e206e6f74207374616b6564206f7260008201527f20616c72656164792077697468647261776e0000000000000000000000000000602082015250565b60006117f86032836115d5565b91506118038261179c565b604082019050919050565b60006020820190508181036000830152611827816117eb565b9050919050565b6000819050919050565b6118496118448261123c565b61182e565b82525050565b600061185b8287611838565b60208201915061186b8286611838565b60208201915061187b8285611838565b60208201915061188b8284611838565b60208201915081905095945050505050565b600081905092915050565b7f19457468657265756d205369676e6564204d6573736167653a0a333200000000600082015250565b60006118de601c8361189d565b91506118e9826118a8565b601c82019050919050565b6000819050919050565b6000819050919050565b611919611914826118f4565b6118fe565b82525050565b600061192a826118d1565b91506119368284611908565b60208201915081905092915050565b7f4865726f5374616b696e673a20496e76616c6964206f7261636c65207369676e60008201527f6174757265000000000000000000000000000000000000000000000000000000602082015250565b60006119a16025836115d5565b91506119ac82611945565b604082019050919050565b600060208201905081810360008301526119d081611994565b9050919050565b7f4e487b7100000000000000000000000000000000000000000000000000000000600052601160045260246000fd5b6000611a118261123c565b91507fffffffffffffffffffffffffffffffffffffffffffffffffffffffffffffffff8203611a4357611a426119d7565b5b600182019050919050565b6000606082019050611a63600083018661153e565b611a70602083018561153e565b611a7d6040830184611514565b949350505050565b6000604082019050611a9a6000830185611514565b611aa76020830184611514565b9392505050565b7f4865726f5374616b696e673a20546f6b656e20616c7265616479207374616b6560008201527f6400000000000000000000000000000000000000000000000000000000000000602082015250565b6000611b0a6021836115d5565b9150611b1582611aae565b604082019050919050565b60006020820190508181036000830152611b3981611afd565b9050919050565b7f4e487b7100000000000000000000000000000000000000000000000000000000600052602160045260246000fd5b611b78816118f4565b82525050565b6000602082019050611b936000830184611b6f565b92915050565b600060ff82169050919050565b611baf81611b99565b82525050565b6000608082019050611bca6000830187611b6f565b611bd76020830186611ba6565b611be46040830185611b6f565b611bf16060830184611b6f565b9594505050505056fea26469706673582212208a8661d5fcc073f912cb827affc97728ca1ba0e1b7c175f32dad5a7af794096e64736f6c63430008140033",
  "linkReferences": {},
  "deployedLinkReferences": {}
}