{
  "_format": "hh-sol-artifact-1",
  "contractName": "HeroStaking",
  "sourceName": "contracts/HeroStaking.sol",
  "abi": [
    {
      "inputs": [
        {
          "internalType": "address",
          "name": "_heroNftContractAddress",
          "type": "address"
        },
        {
          "internalType": "address",
          "name": "_initialOracleAddress",
          "type": "address"
        }
      ],
      "stateMutability": "nonpayable",
      "type": "constructor"
    },
    {
      "inputs": [],
      "name": "ECDSAInvalidSignature",
      "type": "error"
    },
    {
      "inputs": [
        {
          "internalType": "uint256",
          "name": "length",
          "type": "uint256"
        }
      ],
      "name": "ECDSAInvalidSignatureLength",
      "type": "error"
    },
    {
      "inputs": [
        {
          "internalType": "bytes32",
          "name": "s",
          "type": "bytes32"
        }
      ],
      "name": "ECDSAInvalidSignatureS",
      "type": "error"
    },
    {
      "inputs": [
        {
          "internalType": "address",
          "name": "owner",
          "type": "address"
        }
      ],
      "name": "OwnableInvalidOwner",
      "type": "error"
    },
    {
      "inputs": [
        {
          "internalType": "address",
          "name": "account",
          "type": "address"
        }
      ],
      "name": "OwnableUnauthorizedAccount",
      "type": "error"
    },
    {
      "anonymous": false,
      "inputs": [
        {
          "indexed": true,
          "internalType": "address",
          "name": "owner",
          "type": "address"
        },
        {
          "indexed": true,
          "internalType": "address",
          "name": "nftContract",
          "type": "address"
        },
        {
          "indexed": true,
          "internalType": "uint256",
          "name": "tokenId",
          "type": "uint256"
        }
      ],
      "name": "HeroDeposited",
      "type": "event"
    },
    {
      "anonymous": false,
      "inputs": [
        {
          "indexed": true,
          "internalType": "address",
          "name": "owner",
          "type": "address"
        },
        {
          "indexed": true,
          "internalType": "uint256",
          "name": "tokenId",
          "type": "uint256"
        },
        {
          "indexed": false,
          "internalType": "uint256",
          "name": "level",
          "type": "uint256"
        },
        {
          "indexed": false,
          "internalType": "uint256",
          "name": "xp",
          "type": "uint256"
        }
      ],
      "name": "HeroWithdrawn",
      "type": "event"
    },
    {
      "anonymous": false,
      "inputs": [
        {
          "indexed": true,
          "internalType": "address",
          "name": "previousOwner",
          "type": "address"
        },
        {
          "indexed": true,
          "internalType": "address",
          "name": "newOwner",
          "type": "address"
        }
      ],
      "name": "OwnershipTransferred",
      "type": "event"
    },
    {
      "inputs": [
        {
          "internalType": "uint256",
          "name": "_tokenId",
          "type": "uint256"
        }
      ],
      "name": "depositHero",
      "outputs": [],
      "stateMutability": "nonpayable",
      "type": "function"
    },
    {
      "inputs": [
        {
          "internalType": "uint256",
          "name": "_tokenId",
          "type": "uint256"
        }
      ],
      "name": "getStaker",
      "outputs": [
        {
          "internalType": "address",
          "name": "",
          "type": "address"
        }
      ],
      "stateMutability": "view",
      "type": "function"
    },
    {
      "inputs": [],
      "name": "heroNftContractAddress",
      "outputs": [
        {
          "internalType": "address",
          "name": "",
          "type": "address"
        }
      ],
      "stateMutability": "view",
      "type": "function"
    },
    {
      "inputs": [
        {
          "internalType": "address",
          "name": "",
          "type": "address"
        },
        {
          "internalType": "address",
          "name": "",
          "type": "address"
        },
        {
          "internalType": "uint256",
          "name": "",
          "type": "uint256"
        },
        {
          "internalType": "bytes",
          "name": "",
          "type": "bytes"
        }
      ],
      "name": "onERC721Received",
      "outputs": [
        {
          "internalType": "bytes4",
          "name": "",
          "type": "bytes4"
        }
      ],
      "stateMutability": "nonpayable",
      "type": "function"
    },
    {
      "inputs": [],
      "name": "oracleAddress",
      "outputs": [
        {
          "internalType": "address",
          "name": "",
          "type": "address"
        }
      ],
      "stateMutability": "view",
      "type": "function"
    },
    {
      "inputs": [],
      "name": "owner",
      "outputs": [
        {
          "internalType": "address",
          "name": "",
          "type": "address"
        }
      ],
      "stateMutability": "view",
      "type": "function"
    },
    {
      "inputs": [],
      "name": "renounceOwnership",
      "outputs": [],
      "stateMutability": "nonpayable",
      "type": "function"
    },
    {
      "inputs": [
        {
          "internalType": "address",
          "name": "_newAddress",
          "type": "address"
        }
      ],
      "name": "setHeroNftContractAddress",
      "outputs": [],
      "stateMutability": "nonpayable",
      "type": "function"
    },
    {
      "inputs": [
        {
          "internalType": "address",
          "name": "_newOracleAddress",
          "type": "address"
        }
      ],
      "name": "setOracleAddress",
      "outputs": [],
      "stateMutability": "nonpayable",
      "type": "function"
    },
    {
      "inputs": [
        {
          "internalType": "address",
          "name": "",
          "type": "address"
        },
        {
          "internalType": "uint256",
          "name": "",
          "type": "uint256"
        }
      ],
      "name": "stakedBy",
      "outputs": [
        {
          "internalType": "address",
          "name": "",
          "type": "address"
        }
      ],
      "stateMutability": "view",
      "type": "function"
    },
    {
      "inputs": [
        {
          "internalType": "address",
          "name": "newOwner",
          "type": "address"
        }
      ],
      "name": "transferOwnership",
      "outputs": [],
      "stateMutability": "nonpayable",
      "type": "function"
    },
    {
      "inputs": [
        {
          "internalType": "uint256",
          "name": "tokenId",
          "type": "uint256"
        },
        {
          "internalType": "uint256",
          "name": "level",
          "type": "uint256"
        },
        {
          "internalType": "uint256",
          "name": "xp",
          "type": "uint256"
        },
        {
          "internalType": "bytes",
          "name": "signature",
          "type": "bytes"
        }
      ],
      "name": "withdrawHero",
      "outputs": [],
      "stateMutability": "nonpayable",
      "type": "function"
    }
  ],
  "bytecode": "0x60806040523480156200001157600080fd5b5060405162001fca38038062001fca83398181016040528101906200003791906200035b565b33600073ffffffffffffffffffffffffffffffffffffffff168173ffffffffffffffffffffffffffffffffffffffff1603620000ad5760006040517f1e4fbdf7000000000000000000000000000000000000000000000000000000008152600401620000a49190620003b3565b60405180910390fd5b620000be816200022d60201b60201c565b50600073ffffffffffffffffffffffffffffffffffffffff168273ffffffffffffffffffffffffffffffffffffffff160362000131576040517f08c379a0000000000000000000000000000000000000000000000000000000008152600401620001289062000457565b60405180910390fd5b600073ffffffffffffffffffffffffffffffffffffffff168173ffffffffffffffffffffffffffffffffffffffff1603620001a3576040517f08c379a00000000000000000000000000000000000000000000000000000000081526004016200019a90620004ef565b60405180910390fd5b81600260006101000a81548173ffffffffffffffffffffffffffffffffffffffff021916908373ffffffffffffffffffffffffffffffffffffffff16021790555080600360006101000a81548173ffffffffffffffffffffffffffffffffffffffff021916908373ffffffffffffffffffffffffffffffffffffffff160217905550505062000511565b60008060009054906101000a900473ffffffffffffffffffffffffffffffffffffffff169050816000806101000a81548173ffffffffffffffffffffffffffffffffffffffff021916908373ffffffffffffffffffffffffffffffffffffffff1602179055508173ffffffffffffffffffffffffffffffffffffffff168173ffffffffffffffffffffffffffffffffffffffff167f8be0079c531659141344cd1fd0a4f28419497f9722a3daafe3b4186f6b6457e060405160405180910390a35050565b600080fd5b600073ffffffffffffffffffffffffffffffffffffffff82169050919050565b60006200032382620002f6565b9050919050565b620003358162000316565b81146200034157600080fd5b50565b60008151905062000355816200032a565b92915050565b60008060408385031215620003755762000374620002f1565b5b6000620003858582860162000344565b9250506020620003988582860162000344565b9150509250929050565b620003ad8162000316565b82525050565b6000602082019050620003ca6000830184620003a2565b92915050565b600082825260208201905092915050565b7f4865726f5374616b696e673a204e465420636f6e74726163742061646472657360008201527f732063616e6e6f74206265207a65726f00000000000000000000000000000000602082015250565b60006200043f603083620003d0565b91506200044c82620003e1565b604082019050919050565b60006020820190508181036000830152620004728162000430565b9050919050565b7f4865726f5374616b696e673a204f7261636c6520616464726573732063616e6e60008201527f6f74206265207a65726f00000000000000000000000000000000000000000000602082015250565b6000620004d7602a83620003d0565b9150620004e48262000479565b604082019050919050565b600060208201905081810360008301526200050a81620004c8565b9050919050565b611aa980620005216000396000f3fe608060405234801561001057600080fd5b50600436106100b45760003560e01c80638da5cb5b116100715780638da5cb5b14610165578063a49bb37b14610183578063a89ae4ba1461019f578063ba8ebb5e146101bd578063e3c998fe146101ed578063f2fde38b1461021d576100b4565b8063050e2f4c146100b9578063150b7a02146100d55780634c69c00f14610105578063715018a61461012157806375873d3b1461012b57806384dd371714610147575b600080fd5b6100d360048036038101906100ce9190611110565b610239565b005b6100ef60048036038101906100ea91906112b9565b6102f4565b6040516100fc9190611377565b60405180910390f35b61011f600480360381019061011a9190611110565b610308565b005b6101296103c3565b005b61014560048036038101906101409190611392565b6103d7565b005b61014f6107c3565b60405161015c9190611424565b60405180910390f35b61016d6107e9565b60405161017a9190611424565b60405180910390f35b61019d6004803603810190610198919061143f565b610812565b005b6101a7610ae1565b6040516101b49190611424565b60405180910390f35b6101d760048036038101906101d2919061146c565b610b07565b6040516101e49190611424565b60405180910390f35b6102076004803603810190610202919061143f565b610b49565b6040516102149190611424565b60405180910390f35b61023760048036038101906102329190611110565b610be5565b005b610241610c6b565b600073ffffffffffffffffffffffffffffffffffffffff168173ffffffffffffffffffffffffffffffffffffffff16036102b0576040517f08c379a00000000000000000000000000000000000000000000000000000000081526004016102a79061152f565b60405180910390fd5b80600260006101000a81548173ffffffffffffffffffffffffffffffffffffffff021916908373ffffffffffffffffffffffffffffffffffffffff16021790555050565b600063150b7a0260e01b9050949350505050565b610310610c6b565b600073ffffffffffffffffffffffffffffffffffffffff168173ffffffffffffffffffffffffffffffffffffffff160361037f576040517f08c379a0000000000000000000000000000000000000000000000000000000008152600401610376906115c1565b60405180910390fd5b80600360006101000a81548173ffffffffffffffffffffffffffffffffffffffff021916908373ffffffffffffffffffffffffffffffffffffffff16021790555050565b6103cb610c6b565b6103d56000610cf2565b565b600060016000600260009054906101000a900473ffffffffffffffffffffffffffffffffffffffff1673ffffffffffffffffffffffffffffffffffffffff1673ffffffffffffffffffffffffffffffffffffffff168152602001908152602001600020600086815260200190815260200160002060009054906101000a900473ffffffffffffffffffffffffffffffffffffffff1690503373ffffffffffffffffffffffffffffffffffffffff168173ffffffffffffffffffffffffffffffffffffffff16146104dc576040517f08c379a00000000000000000000000000000000000000000000000000000000081526004016104d390611653565b60405180910390fd5b600073ffffffffffffffffffffffffffffffffffffffff168173ffffffffffffffffffffffffffffffffffffffff160361054b576040517f08c379a0000000000000000000000000000000000000000000000000000000008152600401610542906116e5565b60405180910390fd5b600085858560405160200161056293929190611726565b60405160208183030381529060405280519060200120905060008160405160200161058d91906117e5565b60405160208183030381529060405280519060200120905060006105b18286610db6565b9050600360009054906101000a900473ffffffffffffffffffffffffffffffffffffffff1673ffffffffffffffffffffffffffffffffffffffff168173ffffffffffffffffffffffffffffffffffffffff1614610643576040517f08c379a000000000000000000000000000000000000000000000000000000000815260040161063a9061187d565b60405180910390fd5b60016000600260009054906101000a900473ffffffffffffffffffffffffffffffffffffffff1673ffffffffffffffffffffffffffffffffffffffff1673ffffffffffffffffffffffffffffffffffffffff168152602001908152602001600020600089815260200190815260200160002060006101000a81549073ffffffffffffffffffffffffffffffffffffffff0219169055600260009054906101000a900473ffffffffffffffffffffffffffffffffffffffff1673ffffffffffffffffffffffffffffffffffffffff166342842e0e30868b6040518463ffffffff1660e01b8152600401610737939291906118ac565b600060405180830381600087803b15801561075157600080fd5b505af1158015610765573d6000803e3d6000fd5b50505050878473ffffffffffffffffffffffffffffffffffffffff167e71d4b988b2cea9ffaaf222794ac247117b05e91cd07a453cb1c128c52a927989896040516107b19291906118e3565b60405180910390a35050505050505050565b600260009054906101000a900473ffffffffffffffffffffffffffffffffffffffff1681565b60008060009054906101000a900473ffffffffffffffffffffffffffffffffffffffff16905090565b60003390506000600260009054906101000a900473ffffffffffffffffffffffffffffffffffffffff169050600073ffffffffffffffffffffffffffffffffffffffff1660016000600260009054906101000a900473ffffffffffffffffffffffffffffffffffffffff1673ffffffffffffffffffffffffffffffffffffffff1673ffffffffffffffffffffffffffffffffffffffff168152602001908152602001600020600085815260200190815260200160002060009054906101000a900473ffffffffffffffffffffffffffffffffffffffff1673ffffffffffffffffffffffffffffffffffffffff161461093f576040517f08c379a00000000000000000000000000000000000000000000000000000000081526004016109369061197e565b60405180910390fd5b8073ffffffffffffffffffffffffffffffffffffffff166342842e0e8330866040518463ffffffff1660e01b815260040161097c939291906118ac565b600060405180830381600087803b15801561099657600080fd5b505af11580156109aa573d6000803e3d6000fd5b505050508160016000600260009054906101000a900473ffffffffffffffffffffffffffffffffffffffff1673ffffffffffffffffffffffffffffffffffffffff1673ffffffffffffffffffffffffffffffffffffffff168152602001908152602001600020600085815260200190815260200160002060006101000a81548173ffffffffffffffffffffffffffffffffffffffff021916908373ffffffffffffffffffffffffffffffffffffffff16021790555082600260009054906101000a900473ffffffffffffffffffffffffffffffffffffffff1673ffffffffffffffffffffffffffffffffffffffff168373ffffffffffffffffffffffffffffffffffffffff167f8139dca8eb464ea1b818bfb19dc7cad2857a750c4daa2951e02835c245cf729260405160405180910390a4505050565b600360009054906101000a900473ffffffffffffffffffffffffffffffffffffffff1681565b60016020528160005260406000206020528060005260406000206000915091509054906101000a900473ffffffffffffffffffffffffffffffffffffffff1681565b600060016000600260009054906101000a900473ffffffffffffffffffffffffffffffffffffffff1673ffffffffffffffffffffffffffffffffffffffff1673ffffffffffffffffffffffffffffffffffffffff168152602001908152602001600020600083815260200190815260200160002060009054906101000a900473ffffffffffffffffffffffffffffffffffffffff169050919050565b610bed610c6b565b600073ffffffffffffffffffffffffffffffffffffffff168173ffffffffffffffffffffffffffffffffffffffff1603610c5f5760006040517f1e4fbdf7000000000000000000000000000000000000000000000000000000008152600401610c569190611424565b60405180910390fd5b610c6881610cf2565b50565b610c73610de2565b73ffffffffffffffffffffffffffffffffffffffff16610c916107e9565b73ffffffffffffffffffffffffffffffffffffffff1614610cf057610cb4610de2565b6040517f118cdaa7000000000000000000000000000000000000000000000000000000008152600401610ce79190611424565b60405180910390fd5b565b60008060009054906101000a900473ffffffffffffffffffffffffffffffffffffffff169050816000806101000a81548173ffffffffffffffffffffffffffffffffffffffff021916908373ffffffffffffffffffffffffffffffffffffffff1602179055508173ffffffffffffffffffffffffffffffffffffffff168173ffffffffffffffffffffffffffffffffffffffff167f8be0079c531659141344cd1fd0a4f28419497f9722a3daafe3b4186f6b6457e060405160405180910390a35050565b600080600080610dc68686610dea565b925092509250610dd68282610e46565b82935050505092915050565b600033905090565b60008060006041845103610e2f5760008060006020870151925060408701519150606087015160001a9050610e2188828585610faa565b955095509550505050610e3f565b60006002855160001b9250925092505b9250925092565b60006003811115610e5a57610e5961199e565b5b826003811115610e6d57610e6c61199e565b5b0315610fa65760016003811115610e8757610e8661199e565b5b826003811115610e9a57610e9961199e565b5b03610ed1576040517ff645eedf00000000000000000000000000000000000000000000000000000000815260040160405180910390fd5b60026003811115610ee557610ee461199e565b5b826003811115610ef857610ef761199e565b5b03610f3d578060001c6040517ffce698f7000000000000000000000000000000000000000000000000000000008152600401610f3491906119cd565b60405180910390fd5b600380811115610f5057610f4f61199e565b5b826003811115610f6357610f6261199e565b5b03610fa557806040517fd78bce0c000000000000000000000000000000000000000000000000000000008152600401610f9c91906119f7565b60405180910390fd5b5b5050565b60008060007f7fffffffffffffffffffffffffffffff5d576e7357a4501ddfe92f46681b20a08460001c1115610fea576000600385925092509250611094565b60006001888888886040516000815260200160405260405161100f9493929190611a2e565b6020604051602081039080840390855afa158015611031573d6000803e3d6000fd5b505050602060405103519050600073ffffffffffffffffffffffffffffffffffffffff168173ffffffffffffffffffffffffffffffffffffffff160361108557600060016000801b93509350935050611094565b8060008060001b935093509350505b9450945094915050565b6000604051905090565b600080fd5b600080fd5b600073ffffffffffffffffffffffffffffffffffffffff82169050919050565b60006110dd826110b2565b9050919050565b6110ed816110d2565b81146110f857600080fd5b50565b60008135905061110a816110e4565b92915050565b600060208284031215611126576111256110a8565b5b6000611134848285016110fb565b91505092915050565b6000819050919050565b6111508161113d565b811461115b57600080fd5b50565b60008135905061116d81611147565b92915050565b600080fd5b600080fd5b6000601f19601f8301169050919050565b7f4e487b7100000000000000000000000000000000000000000000000000000000600052604160045260246000fd5b6111c68261117d565b810181811067ffffffffffffffff821117156111e5576111e461118e565b5b80604052505050565b60006111f861109e565b905061120482826111bd565b919050565b600067ffffffffffffffff8211156112245761122361118e565b5b61122d8261117d565b9050602081019050919050565b82818337600083830152505050565b600061125c61125784611209565b6111ee565b90508281526020810184848401111561127857611277611178565b5b61128384828561123a565b509392505050565b600082601f8301126112a05761129f611173565b5b81356112b0848260208601611249565b91505092915050565b600080600080608085870312156112d3576112d26110a8565b5b60006112e1878288016110fb565b94505060206112f2878288016110fb565b93505060406113038782880161115e565b925050606085013567ffffffffffffffff811115611324576113236110ad565b5b6113308782880161128b565b91505092959194509250565b60007fffffffff0000000000000000000000000000000000000000000000000000000082169050919050565b6113718161133c565b82525050565b600060208201905061138c6000830184611368565b92915050565b600080600080608085870312156113ac576113ab6110a8565b5b60006113ba8782880161115e565b94505060206113cb8782880161115e565b93505060406113dc8782880161115e565b925050606085013567ffffffffffffffff8111156113fd576113fc6110ad565b5b6114098782880161128b565b91505092959194509250565b61141e816110d2565b82525050565b60006020820190506114396000830184611415565b92915050565b600060208284031215611455576114546110a8565b5b60006114638482850161115e565b91505092915050565b60008060408385031215611483576114826110a8565b5b6000611491858286016110fb565b92505060206114a28582860161115e565b9150509250929050565b600082825260208201905092915050565b7f4865726f5374616b696e673a204e657720616464726573732063616e6e6f742060008201527f6265207a65726f00000000000000000000000000000000000000000000000000602082015250565b60006115196027836114ac565b9150611524826114bd565b604082019050919050565b600060208201905081810360008301526115488161150c565b9050919050565b7f4865726f5374616b696e673a204e6577206f7261636c6520616464726573732060008201527f63616e6e6f74206265207a65726f000000000000000000000000000000000000602082015250565b60006115ab602e836114ac565b91506115b68261154f565b604082019050919050565b600060208201905081810360008301526115da8161159e565b9050919050565b7f4865726f5374616b696e673a2043616c6c6572206973206e6f7420746865207360008201527f74616b6572000000000000000000000000000000000000000000000000000000602082015250565b600061163d6025836114ac565b9150611648826115e1565b604082019050919050565b6000602082019050818103600083015261166c81611630565b9050919050565b7f4865726f5374616b696e673a20546f6b656e206e6f74207374616b6564206f7260008201527f20616c72656164792077697468647261776e0000000000000000000000000000602082015250565b60006116cf6032836114ac565b91506116da82611673565b604082019050919050565b600060208201905081810360008301526116fe816116c2565b9050919050565b6000819050919050565b61172061171b8261113d565b611705565b82525050565b6000611732828661170f565b602082019150611742828561170f565b602082019150611752828461170f565b602082019150819050949350505050565b600081905092915050565b7f19457468657265756d205369676e6564204d6573736167653a0a333200000000600082015250565b60006117a4601c83611763565b91506117af8261176e565b601c82019050919050565b6000819050919050565b6000819050919050565b6117df6117da826117ba565b6117c4565b82525050565b60006117f082611797565b91506117fc82846117ce565b60208201915081905092915050565b7f4865726f5374616b696e673a20496e76616c6964206f7261636c65207369676e60008201527f6174757265000000000000000000000000000000000000000000000000000000602082015250565b60006118676025836114ac565b91506118728261180b565b604082019050919050565b600060208201905081810360008301526118968161185a565b9050919050565b6118a68161113d565b82525050565b60006060820190506118c16000830186611415565b6118ce6020830185611415565b6118db604083018461189d565b949350505050565b60006040820190506118f8600083018561189d565b611905602083018461189d565b9392505050565b7f4865726f5374616b696e673a20546f6b656e20616c7265616479207374616b6560008201527f6400000000000000000000000000000000000000000000000000000000000000602082015250565b60006119686021836114ac565b91506119738261190c565b604082019050919050565b600060208201905081810360008301526119978161195b565b9050919050565b7f4e487b7100000000000000000000000000000000000000000000000000000000600052602160045260246000fd5b60006020820190506119e2600083018461189d565b92915050565b6119f1816117ba565b82525050565b6000602082019050611a0c60008301846119e8565b92915050565b600060ff82169050919050565b611a2881611a12565b82525050565b6000608082019050611a4360008301876119e8565b611a506020830186611a1f565b611a5d60408301856119e8565b611a6a60608301846119e8565b9594505050505056fea26469706673582212200ac4b9b4d1e45c8911322bf49c306ae043f6c94e56f3be8e3ce024210bd2180e64736f6c63430008140033",
  "linkReferences": {},
  "deployedLinkReferences": {}
}